:100000000C94E5040C9402050C9402050C945B110D
:100010000C942C360C9402050C9402050C940205E9
:100020000C9402050C9402050C9402050C948D2C82
:100030000C9402050C9402050C9402050C94020524
:100040000C94702E0C9402050C9485280C9438287E
:100050000C9402050C9402050C9402050C94020504
:100060000C9402050C9402051107110711071107E2
:10007000A606231023102310231023109A06231002
:100080002310231023102310231064076407640730
:100090009C079C07231023102310231023102310E8
:1000A0009A0623109A0623102310231023102310DE
:1000B0002310231011072310CA0723102310A707AA
:1000C00023102310231023102310A707231023101D
:1000D0002310A606BF07BF07BF07BF07BF07BF079D
:1000E0002310C407231023102310231023102310E0
:1000F0002310231023102310231023102310231068
:10010000231023102310231017072310231023106C
:1001100023102310231023102310231078077807AF
:100120009A0691079107F907F907F90709080908DD
:100130000908411041101D081D08411041104110CF
:100140004110411041104110411041104110411027
:100150004110411041104110411041104110411017
:100160004110F9074E0845104510580865087208F7
:100170007F08451083084510910845109B08A50885
:10018000D608451045104510AF08BC08C908D70E61
:10019000EC0E0B0FEC0E110F280F170F210F3D0F58
:1001A000470F530F750F960FA40FB30FC10F69229E
:1001B0006E22732278227D22822287228C22912233
:1001C00096229B22AF22AF22AF22AF22AF22AF22D4
:1001D000AF22AF22A522A022AA22022307230C23AA
:1001E000112316231B23202325233D275127562780
:1001F0005F274C275F275F275F2742275F275F27FF
:100200005F275F275F275F275F2747275F275F27D6
:100210005F275F275F275F275F275F275F275F27AE
:100220005F275F275F275F275F275B275F275F27A2
:100230005F275F275F275F275F275F275F275F278E
:100240005F275F275F275F275F275F275F275F277E
:100250005F275F275F275F275F275F275F275F276E
:100260005F275F275F275F275F274227842A8A2A25
:100270008D2A922A972AA52AB32A3E2B3E2B3E2B63
:10028000C12AC42ACD2AD62A3E2B3E2B3E2B3E2BFA
:100290003E2B3E2BE42AF42A042B122B152B1E2B6B
:1002A000272B2E2B084AD73B3BCE016E84BCBFFDCB
:1002B000C12F3D6C74319ABD56833DDA3D00C77F36
:1002C00011BED9E4BB4C3E916BAAAABE00000080CF
:1002D0003F05A84CCDB2D44EB93836A9020C50B95E
:1002E000918688083CA6AAAA2ABE000000803F008A
:1002F0003E0D0A002C4C696D3A002C52583A002CE5
:100300004275663A002C002C57506F733A002C004F
:100310002C4D506F733A003C446F6F72003C436841
:1003200065636B003C416C61726D003C486F6D65AC
:10033000003C486F6C64003C52756E003C49646C34
:1003400065005D0D0A005B302E396A2E3230313681
:10035000303732363A000D0A003D00244E005D0D64
:100360000A00205300204600205400204D38002071
:100370004D3900204D3500204D3400204D330020F4
:100380004D3200204D3100204D30002047393400DF
:1003900020473933002047393100204739300020C9
:1003A00047323000204732310020473139002047A2
:1003B00031380020473137002047004733382E00BE
:1003C000473830004733004732004731004730009C
:1003D0005B005D0D0A005B544C4F3A005D0D0A0056
:1003E0002C005B4739323A005D0D0A002C003A00C0
:1003F0003330003238005B47005D0D0A003A002CB4
:10040000005B5052423A00290D0A00206D617820AD
:1004100074726176656C2C206D6D0020616363657C
:100420006C2C206D6D2F7365635E3200206D6178DA
:1004300020726174652C206D6D2F6D696E002C200B
:10044000737465702F6D6D007A0079007800202834
:10045000003D0024002028686F6D696E672070756C
:100460006C6C2D6F66662C206D6D290D0A0020289E
:10047000686F6D696E67206465626F756E63652C69
:10048000206D736563290D0A2432373D00202868EA
:100490006F6D696E67207365656B2C206D6D2F6DB8
:1004A000696E290D0A2432363D002028686F6D6977
:1004B0006E6720666565642C206D6D2F6D696E29F1
:1004C0000D0A2432353D00290D0A2432343D002026
:1004D00028686F6D696E672064697220696E766541
:1004E0007274206D61736B3A002028686F6D696EBD
:1004F00067206379636C652C20626F6F6C290D0A2D
:100500002432333D00202868617264206C696D6973
:1005100074732C20626F6F6C290D0A2432323D00F7
:100520002028736F6674206C696D6974732C206267
:100530006F6F6C290D0A2432313D002028726570DE
:100540006F727420696E636865732C20626F6F6CC4
:10055000290D0A2432303D00202861726320746F17
:100560006C6572616E63652C206D6D290D0A2431F6
:10057000333D0020286A756E6374696F6E20646570
:1005800076696174696F6E2C206D6D290D0A2431B6
:10059000323D00290D0A2431313D00202873746159
:1005A000747573207265706F7274206D61736B3A2D
:1005B00000202870726F62652070696E20696E7607
:1005C0006572742C20626F6F6C290D0A2431303DE6
:1005D0000020286C696D69742070696E7320696EE3
:1005E000766572742C20626F6F6C290D0A24363D7B
:1005F0000020287374657020656E61626C652069E7
:100600006E766572742C20626F6F6C290D0A24352A
:100610003D00290D0A24343D0020286469722070B1
:100620006F727420696E76657274206D61736B3AB7
:1006300000290D0A24333D00202873746570207052
:100640006F727420696E76657274206D61736B3A97
:10065000002028737465702069646C652064656C83
:1006600061792C206D736563290D0A24323D0020C9
:1006700028737465702070756C73652C20757365B4
:1006800063290D0A24313D0024303D002424202814
:1006900076696577204772626C2073657474696E41
:1006A0006773290D0A242320287669657720232083
:1006B000706172616D6574657273290D0A2447203B
:1006C0002876696577207061727365722073746132
:1006D0007465290D0A24492028766965772062759A
:1006E000696C6420696E666F290D0A244E20287695
:1006F000696577207374617274757020626C6F63C2
:100700006B73290D0A24783D76616C75652028731A
:10071000617665204772626C2073657474696E67D8
:10072000290D0A244E783D6C696E65202873617628
:1007300065207374617274757020626C6F636B29CD
:100740000D0A24432028636865636B2067636F6428
:1007500065206D6F6465290D0A245820286B696C2B
:100760006C20616C61726D206C6F636B290D0A24C3
:1007700048202872756E20686F6D696E67206379F6
:10078000636C65290D0A7E20286379636C6520738C
:1007900074617274290D0A212028666565642068D9
:1007A0006F6C64290D0A3F202863757272656E7440
:1007B00020737461747573290D0A6374726C2D78DB
:1007C00020287265736574204772626C290D0A00D7
:1007D0000D0A4772626C20302E396A205B2724276D
:1007E00020666F722068656C705D0D0A005D0D0AF1
:1007F00000526573746F72696E6720646566617517
:100800006C74730050676D20456E640043686563C7
:100810006B20446F6F720044697361626C656400A1
:10082000456E61626C65640043617574696F6E3A10
:1008300020556E6C6F636B656400272448277C2706
:1008400024582720746F20756E6C6F636B0052659F
:1008500073657420746F20636F6E74696E756500C4
:100860005B000D0A00486F6D696E67206661696CF8
:100870000050726F6265206661696C0041626F7240
:100880007420647572696E67206379636C650053C8
:100890006F6674206C696D69740048617264206CC5
:1008A000696D697400414C41524D3A20000D0A00B7
:1008B000496E76616C69642067636F6465204944A2
:1008C0003A00556E646566696E65642066656564A8
:1008D000207261746500556E737570706F72746507
:1008E0006420636F6D6D616E64004D6F64616C2098
:1008F00067726F75702076696F6C6174696F6E00D6
:100900004C696E65206F766572666C6F7700486F14
:100910006D696E67206E6F7420656E61626C6564D0
:1009200000416C61726D206C6F636B004E6F7420C0
:1009300069646C6500454550524F4D207265616495
:10094000206661696C2E205573696E672064656648
:1009500061756C74730056616C7565203C203320A2
:10096000757365630053657474696E672064697399
:1009700061626C65640056616C7565203C203000D6
:10098000496E76616C69642073746174656D656E1F
:100990007400426164206E756D62657220666F72CC
:1009A0006D617400457870656374656420636F6D74
:1009B0006D616E64206C6574746572006572726F2F
:1009C000723A20006F6B0D0A000011241FBECFEF9A
:1009D000D8E0DEBFCDBF11E0A0E0B1E0E8E9FCE780
:1009E00002C005900D92A436B107D9F727E0A4E61E
:1009F000B1E001C01D92A033B207E1F70E94F813E5
:100A00000C944A3E0C940000439808953B9A0E942F
:100A100004050895823011F4439A08950E94040554
:100A20000895CF9390910506923031F0C82F0E941F
:100A30003B228C2F0E940A05CF910895F999FECF91
:100A400092BD81BD81E08FBB80B50895F894F9997E
:100A5000FECF92BD81BD81E08FBB80B58627962FEA
:100A6000982359F06F3F29F060BD84E08FBBF99A5D
:100A70000AC084E18FBBF99A06C0882321F060BDCB
:100A800084E28FBBF99A789408958F929F92AF92E7
:100A9000BF92CF92DF92EF92FF920F931F93CF936B
:100AA000DF937C018B016A014115510509F15A015F
:100AB000C0E0D1E001C0C401C11108C06C2FCC0F4F
:100AC000770BC72FCC1FCC27CC1F01C0CD2FF8012F
:100AD00061918F01C60F4C01FFEF8F1A9F0A0E9490
:100AE000260521E0A21AB10831F7EC0CFD1C01C06B
:100AF000C0E06C2FC7010E942605DF91CF911F91A6
:100B00000F91FF90EF90DF90CF90BF90AF909F90AC
:100B10008F9008958F929F92AF92BF92CF92DF9263
:100B2000EF92FF920F931F93CF93DF937B016A01A4
:100B30004115510511F1C82FD92F5A01CB01912C24
:100B4000882483948C010F5F1F4F0E941E05911013
:100B500008C0292D990C330B232F221F2227221F77
:100B600001C0282D982E920E899381E0A81AB10811
:100B7000C80141F7EC0CFD1C01C0912CC7010E947B
:100B80001E0521E030E0891511F020E030E0C901B8
:100B9000DF91CF911F910F91FF90EF90DF90CF9059
:100BA000BF90AF909F908F900895EF92FF920F9318
:100BB0001F93CF93DF937C01062F172FEC012C9608
:100BC000F70161917191819191917F01F8012191DA
:100BD0003191419151918F010E94AB3A811105C031
:100BE000EC16FD0669F781E001C080E0DF91CF914E
:100BF0001F910F91FF90EF9008958FE3ECE8F5E0DF
:100C0000DF011D928A95E9F76FEA75E080E00E94A6
:100C1000132A811103C087E00E945022089568E0E2
:100C200076E083EA95E00E94973808952F923F92EC
:100C30004F925F926F927F928F929F92AF92BF92EC
:100C4000CF92DF92EF92FF920F931F93CF93DF9398
:100C5000CDB7DEB7AB970FB6F894DEBF0FBECDBFF2
:100C60007C0189E3EBECF5E0DF011D928A95E9F761
:100C70008AE0ECE8F5E0ACECB5E001900D928A95E5
:100C8000E1F7198E612C712CC12CD12C1BA21E8E68
:100C90001AA2AA24A394B12C0F2EF1E68F2EF3E012
:100CA0009F2EF02DA5C29FEB910F9A3110F00C945E
:100CB0001F108F5F898FAE01465E5F4FBE01675E7A
:100CC0007F4FC7010E947618882311F40C942110DD
:100CD0002A8C3B8C4C8C5D8CC201B1010E94F03D92
:100CE0000E942E3B062F70E080E090E00E945F3B68
:100CF0009B01AC01C201B1010E94B53920E030E096
:100D000048EC52E40E940D3D0E947A3D0E942E3B29
:100D1000173421F01D3409F45CC1B2C1802F90E07A
:100D20008F35910510F00C942310FC01EC5CFF4F03
:100D30000C94443E6115710511F00C94A410BAA1F5
:100D4000BB2311F40C9487100C9425100C3109F17D
:100D500028F4043071F00A30A1F01EC1053309F403
:100D600044C00C3509F449C00E3149F115C1E1E028
:100D7000EAA3E1E0ABECB5E0EC9380E012C1F1E076
:100D8000FAA382E0ABECB5E08C9380E00AC1B1E05D
:100D9000BAA36115710529F06A30710541F00C9410
:100DA000271023E0EBECF5E0208380E001C184E034
:100DB000ABECB5E08C9380E0FBC0B1E0BAA3611569
:100DC000710529F06A30710541F00C94291025E075
:100DD000EBECF5E0208380E0EBC0E6E0ABECB5E0C7
:100DE000EC9380E0E5C0F1E0FAA3E7E0ABECB5E01E
:100DF000EC9380E0D6C0F1E0FAA36115710529F00B
:100E00006A30710541F00C942B10E8E0ABECB5E0D2
:100E1000EC9380E0CDC0E9E0ABECB5E0EC9380E092
:100E2000C7C0FAA1F1110C942D1022E02AA30230C0
:100E3000B9F028F4002359F0013069F0AFC0063250
:100E4000C9F00035E1F1033009F0A8C00EC01092DE
:100E5000CC0581E0A6C031E03093CC0581E0A1C093
:100E600082E08093CC0581E09CC083E08093CC0538
:100E700081E097C06E31710599F028F464317105F5
:100E800051F00C942F106832710579F062337105BE
:100E900089F00C942F1084E08093CC0581E088C009
:100EA00095E09093CC0581E083C0A6E0A093CC05AB
:100EB00081E07EC0B7E0B093CC0581E079C0E8E086
:100EC000E093CC0581E06DC0023149F0033161F05F
:100ED000013109F065C01092D00582E062C0F1E0F6
:100EE000F093D00582E05DC082E08093D00559C0C8
:100EF0006115710559F40A3521F41092CF0583E08C
:100F000057C021E02093CF0583E052C06A307105BD
:100F100011F00C9431100A3511F40C94331084E064
:100F200047C00D3529F431E03093CD0585E039C057
:100F30001092CD0585E035C0043129F481E080931D
:100F4000CE0586E02EC01092CE0586E02AC09AA17A
:100F500091110C943510013331F41092D10588E0D1
:100F6000A3E0AAA325C06A30710511F00C943710D4
:100F7000B1E0B093D10588E0E3E0EAA319C00653DD
:100F80000093D20589E00DC0672B11F00C94391045
:100F90008AE00EC087E005C080E003C081E001C0A8
:100FA00082E0672B29F00C943B1080E0F1E0FAA37B
:100FB000950102C0220F331F8A95E2F7C9019601FD
:100FC00028233923232B11F00C943D10C82AD92A49
:100FD0000FC1672B11F00C943F10802F90E08F31E0
:100FE000910510F00C944110FC01ED56FF4F0C944C
:100FF000443E023049F00E3139F001112CC031E08D
:101000003093D3058BE02CC082E08093D3058BE036
:1010100027C0043049F0053061F00330F1F481E07D
:101020008093D5058CE01CC082E08093D5058CE0D0
:1010300017C01092D5058CE013C0083019F00930A4
:1010400031F00DC082E08093D4058DE009C010928C
:10105000D4058DE005C08BE003C08CE001C08DE0BD
:10106000D50102C0AA0FBB1F8A95E2F796012A2379
:101070003B23232B11F00C944310CA2ADB2AB8C05F
:10108000812F90E0FC01E654F109E531F10510F003
:101090000C944510EE54FF4F0C94443E2092D6051C
:1010A0003092D7054092D8055092D90580E07FC094
:1010B0002092DA053092DB054092DC055092DD0586
:1010C000BBA1B160BBA381E072C02092DE0530926B
:1010D000DF054092E0055092E105EBA1E260EBA351
:1010E00082E065C02092E2053092E3054092E4057B
:1010F0005092E505FBA1F460FBA383E058C0009388
:10110000E60584E054C0C201B1010E94273B609310
:10111000E7057093E8058093E9059093EA0585E07B
:1011200046C02092EB053092EC054092ED055092BE
:10113000EE0586E03CC02092EF053092F00540922B
:10114000F1055092F20587E032C02092F30530920B
:10115000F4054092F5055092F60588E028C02092EB
:10116000F8053092F9054092FA055092FB052E8D54
:1011700021602E8F8AE01BC02092FC053092FD0575
:101180004092FE055092FF053E8D32603E8F8BE00F
:101190000EC0209200063092010640920206509244
:1011A00003068E8D84608E8F8CE001C089E08501FE
:1011B000082E02C0000F111F0A94E2F793012023AA
:1011C0003123232B09F063C7D40102C0B595A7953D
:1011D0008A95E2F7A0FF0AC020E030E0A901C20131
:1011E000B1010E94AB3A88230CF453C7602A712ADC
:1011F000898DF701E80FF11D1081111154CDBE8DBD
:10120000BB2329F0EAA1E11102C0F2E0FAA365FED6
:101210000EC08091E7059091E805A091E905B09195
:10122000EA0580389649A849B1050CF034C7809189
:10123000CD05813031F43AA1323091F560FE2DC7F1
:101240002FC080918D0581112BC060FE19C0809147
:10125000CE05813029F50BEC15E023E333E34BECAD
:1012600051E4D8011B966D917D918D919C911E97B3
:101270000E940D3DF801638774878587968710C0AB
:1012800080919A0590919B05A0919C05B0919D0538
:101290008093D6059093D705A093D805B093D90530
:1012A00070FC10C08091960590919705A0919805CB
:1012B000B09199058093F3059093F405A093F505FB
:1012C000B093F6058091CB05813021F466FEE7C628
:1012D000E89466F88091D005882349F0813009F4BC
:1012E0004DC71EA2F2E0FDA321E02CA34CC78091C4
:1012F000CE05813099F532E03EA38DA31CA20F2EBE
:10130000FBECAF2EF5E0BF2EF02D00E010E09E8D3F
:10131000E92EF12CC701002E02C0959587950A94FD
:10132000E2F780FF12C023E333E34BEC51E4D50135
:101330009D966D917D918D919C91D0970E940D3DD0
:10134000F50165A776A787A790AB0F5F1F4FF4E065
:10135000AF0EB11C03301105E9F605C022E02EA343
:1013600031E03DA31CA28AA1833041F48091D105D4
:10137000813021F49E8D943009F093C68CE0EFEA21
:10138000F5E0DE01119601900D928A95E1F7D1FE0C
:1013900011C08091D205873008F085C690919205E2
:1013A000891741F0BE016F5F7F4F0E94132A882387
:1013B00009F47BC65090CB05A2E05A1629F0B8E09C
:1013C0005B1609F4A8C01CC1EE8DEE2309F46FC6AC
:1013D000C30180759927892B09F46BC66091EB05D1
:1013E0007091EC058091ED059091EE050E94F03D25
:1013F0000E942E3B673008F05EC68091E60584317E
:1014000029F0823009F059C667FC59C6FFEA6F22FD
:10141000662319F061506FA303C02091D2052FA35A
:10142000BE01635F7F4F8FA10E94132A882309F4B6
:1014300048C63090E6058091C7059091C805A091F7
:10144000C905B091CA0588A799A7AAA7BBA78E010D
:10145000035F1F4F0F2EFBECEF2EF5E0FF2EF02D5C
:101460000F2EFCE8CF2EF5E0DF2EF02DA12CB12CB5
:101470009E8D892E912CC4010A2C02C095958795CA
:101480000A94E2F780FF36C0A4E13A1229C0F601BF
:1014900027A530A941A952A96789708D818D928DA8
:1014A0000E94B539D7019D962D913D914D915C914A
:1014B000D0970E94B539F80160837183828393834A
:1014C000F2E0AF1217C028A539A54AA55BA50E9476
:1014D000B539D8016D937D938D939C9313970AC072
:1014E000F70185A596A5A7A5B0A9F80180839183EA
:1014F000A283B383FFEFAF1ABF0A0C5F1F4F24E034
:10150000E20EF11C34E0C30ED11C83E0A816B10436
:1015100009F0B1CF56C69E8D992309F4D4C50F2E7C
:10152000FCE8CF2EF5E0DF2EF02DDE0111965D01F7
:101530000F2EFBECEF2EF5E0FF2EF02D00E010E07B
:10154000892E912CC401002E02C0959587950A948E
:10155000E2F780FF3AC0F501208131814281538159
:10156000D60157966D917D918D919C915A970E94CD
:10157000B539F70125A536A547A550A90E94B5396B
:10158000D7019D966D937D938D939C93D097023058
:1015900031F5000F111F000F111F05531A4F209135
:1015A000C7053091C8054091C9055091CA050E94F0
:1015B000B539F80165A776A787A790AB1091CC0540
:1015C000183009F4F2C01FA2F7C0F60187A590A950
:1015D000A1A9B2A9F70185A796A7A7A7B0AB0F5FEE
:1015E0001F4FF4E0CF0ED11C24E0A20EB11C34E05A
:1015F000E30EF11C0330110509F0A4CF1FA2E1C5D1
:101600008AA1833009F49BC09E8D992309F4CDC52E
:101610004090CF050F2EFCE8CF2EF5E0DF2EF02D09
:101620000F2EFBECEF2EF5E0FF2EF02DDE011196D4
:101630005D0100E010E0292E312CC101002E02C016
:10164000959587950A94E2F780FD0BC0F60187898E
:10165000908DA18DB28DF70185A796A7A7A7B0ABF6
:101660005EC0F7E05F1609F45AC0411043C0D601CE
:101670009F962D913D914D915C91D297F50160819E
:101680007181828193810E94B639D7019D962D91F7
:101690003D914D915C91D0970E94B6399B01AC0170
:1016A000F70165A776A787A790AB0230C1F5000FB9
:1016B000111F000F111F05531A4F6091C70570913C
:1016C000C8058091C9059091CA050E94B639D80114
:1016D0009D966D937D938D939C93D097B5E05B160B
:1016E00009F446C0E7E05E1609F450C0F3E05F126B
:1016F00052C034C0D60157962D913D914D915C91C9
:101700005A97F70165A576A587A590A90E94B639D5
:10171000D7019D966D937D938D939C93D0970F5F8A
:101720001F4FB4E0CB0ED11CE4E0EE0EF11CF4E050
:10173000AF0EB11C0330110509F07FCF2AC525E09B
:101740005216B1F037E0531609F183E0581223C066
:101750009E8D911103C01AA201C01AA2BE01635F3F
:101760007F4F86E00E94132A882309F4AEC413C079
:10177000AE8DA11101C01AA2BE01635F7F4F87E049
:101780000E94132A882309F4A2C405C08091CC05C5
:10179000823008F09EC41091CC05183061F4BE8DE3
:1017A000BB2309F42FC21FA201C01FA2EAA1E1308E
:1017B00009F091C430C21FA2FAA1F23009F023C28D
:1017C000111105C02E8D222309F401C524C220E089
:1017D00030E0A9016091D6057091D7058091D805B8
:1017E0009091D9050E94AB3A882309F476C414304D
:1017F00028F4123060F4113029F005C2183008F4D2
:10180000F4C101C23E8D332309F4E1C404C28E8DBC
:10181000882309F464C49CA1A92EB12CADA18A2E01
:10182000912C81E090E08C010CA002C0000F111FF0
:101830000A94E2F702C0880F991FAA95E2F7082BD5
:10184000192BBE8D8B2F90E080239123892B09F4D7
:1018500048C4C501880F991F880F991FFC01E553E3
:10186000FA4FDC01A457BA4F57962D913D914D91F7
:101870005C915A9765A576A587A590A90E94B53970
:101880006E8F7F8F88A399A3C401880F991F880F3B
:10189000991FFC01E553FA4FDC01A457BA4F579644
:1018A0002D913D914D915C915A9765A576A587A59F
:1018B00090A90E94B53968A779A78AA79BA767FE58
:1018C000E6C0E89467F868EF75E083EA95E00E9467
:1018D000D505811108C48091CE058130A1F40BECAF
:1018E00015E023E333E34BEC51E4F80164A175A167
:1018F00086A197A10E940D3DD80194966D937D938A
:101900008D939C939797C090EF05D090F005E09051
:10191000F105F090F20520E030E040E850E4C70126
:10192000B6010E940D3DA70196010E940D3D6B017D
:101930007C012E8D3F8D48A159A1CA01B9010E9499
:101940000D3D9B01AC01C701B6010E94B5396B0189
:101950007C0128A539A54AA55BA5CA01B9010E9449
:101960000D3D9B01AC01C701B6010E94B5396B0169
:101970007C0120E030E0A9010E94AB3A88230CF4FE
:10198000B4C3C701B6010E94AC3D6B017C0128A520
:1019900039A54AA55BA56E8D7F8D88A199A10E946E
:1019A00047199B01AC01C701B60190580E94B53A96
:1019B0006B017C018091CC05833021F4F7FAF0941F
:1019C000F7F8F0942090EF053090F0054090F10585
:1019D0005090F20520E030E0A901C201B1010E945F
:1019E000AB3A88237CF4F7FAF094F7F8F094D2013C
:1019F000C101B0588093EF059093F005A093F105D5
:101A0000B093F2058501000F111F000F111F015344
:101A10001A4F28A539A54AA55BA5C701B6010E94A2
:101A20000D3D9B01AC016E8D7F8D88A199A10E9417
:101A3000B53920E030E040E05FE30E940D3DF80161
:101A400063877487858796878401000F111F000FB5
:101A5000111F01531A4F2E8D3F8D48A159A1C70167
:101A6000B6010E940D3D28A539A54AA55BA50E9497
:101A7000B63920E030E040E05FE30E940D3DD80140
:101A80001B966D937D938D939C931E97C4C0BBA1B1
:101A9000CB2ED12C0C211D21012B09F428C3E1EF01
:101AA0006E228091CE05813041F50BEC15E0E12CE2
:101AB000F12CC6010E2C02C0959587950A94E2F789
:101AC00080FF12C023E333E34BEC51E4D8011F96AF
:101AD0006D917D918D919C9152970E940D3DF801E1
:101AE0006787708B818B928BFFEFEF1AFF0A0C5F79
:101AF0001F4F23E0E216F104E1F6C401880F991F9D
:101B0000880F991FDC01A153BA4F7D011B962D91BF
:101B10003D914D915C911E9768A579A58AA59BA5DD
:101B20000E94B5391B012C018501000F111F000F08
:101B3000111F01531A4FF8012385348545855685B9
:101B40006E8D7F8D88A199A10E94B539A201910166
:101B50000E9447194B015C01D7011B962D913D91C5
:101B60004D915C911E97F8016385748585859685F6
:101B70000E9447196B017C016093EF057093F0059B
:101B80008093F1059093F2059B01AC01C501B4016E
:101B90000E94B5394B015C01E894B7F82AE037EDB3
:101BA00043EA5BE3C501B4010E94CD3C18169CF5E5
:101BB00020E030E040E05FE3C501B4010E94CD3C8D
:101BC00018160CF496C22FE632E143E85AE3C70137
:101BD000B6010E940D3D9B01AC01C501B4010E94FC
:101BE000CD3C18160CF487C216C0FE8DFF2309F4F5
:101BF00084C268EF75E083EA95E00E94D505811103
:101C00007EC209C01FA22AA1211105C03EED632298
:101C10003CEF732204C08EED682280EE78226728A4
:101C200009F06FC2ECE8F5E0ABECB5E05C964D91E5
:101C30005D916D917C915F97438B548B658B768B17
:101C400012968C91129781831B964D915D916D91A7
:101C50007C911E9746875787608B718B9896CD90A5
:101C6000DD90ED90FC909B97A701960162857385AE
:101C7000848595850E94AB3A8823C1F080919505B3
:101C8000882321F0B701A6010E942C2C8091F30536
:101C90009091F405A091F505B091F6058093960515
:101CA00090939705A0939805B0939905ECE8F5E01B
:101CB000ABECB5E09C968C919C97828B1A968C919C
:101CC0009185981759F08F014285538564857585F4
:101CD0000E942C2C8091D505F80181878091D40534
:101CE00090919405981731F00E9411058091D405C8
:101CF000809394058091CB05813051F46091EB0580
:101D00007091EC058091ED059091EE050E944F17C2
:101D1000ECE8F5E0ABECB5E015968C911597848373
:101D200013968C918283FAA1F330F9F48091D10556
:101D300080939105813089F480910006909101068D
:101D4000A0910206B09103068093C7059093C80541
:101D5000A093C905B093CA0508C01092C705109298
:101D6000C8051092C9051092CA058091D2059091BC
:101D70009205981759F0809392058CE0FE013196F8
:101D8000AFEAB5E001900D928A95E1F7EBECF5E052
:101D9000848180938F05808190E0FC013297E83048
:101DA000F10508F055C0E953FF4F0C94443EBE01C5
:101DB000635F7F4F8FA10E940529809192052FA11B
:101DC000821346C08CE0FE013D96AFEAB5E001907B
:101DD0000D928A95E1F73CC03AA1332349F020E007
:101DE00040E050E060E87FEB88EF95E00E94371418
:101DF00020E040E050E060E87FEBCE010D960E94CD
:101E000037148CE0FE013D96A3EAB5E001900D92F7
:101E10008A95E1F71DC063EA75E086E00E94052916
:101E200017C063EA75E087E00E94052911C08CE0C5
:101E3000E8EFF5E0ABEBB5E001900D928A95E1F7A4
:101E400007C08CE0EBEBF5E0DF011D928A95E9F726
:101E50008091CC0580938C05883009F4A9C0BAA183
:101E6000B23009F0A5C090E08830910508F097C025
:101E7000FC01E153FF4F0C94443E20E040E050E071
:101E800060E87FEB88EF95E00E94371488C0ECE8AB
:101E9000F5E04685578560897189218188EF95E055
:101EA0000E9437147CC0ECE8F5E0C684D784E08853
:101EB000F1880091EF051091F0052091F105309126
:101EC000F20581E08F938EA18F939DA19F938CA0AB
:101ED000A1804AED55E068EF75E083EA95E00E9445
:101EE0006D140F900F900F905AC0ECE8F5E0C68487
:101EF000D784E088F1880091EF051091F0052091DA
:101F0000F1053091F2051F92AEA1AF93BDA1BF9331
:101F10008CA0A1804AED55E068EF75E083EA95E07A
:101F20000E946D140F900F900F9039C0ECE8F5E00F
:101F30004685578560897189E12C00E0218188EF11
:101F400095E00E94C4172BC0ECE8F5E04685578564
:101F500060897189EE24E39400E0218188EF95E0A7
:101F60000E94C4171CC0ECE8F5E0468557856089DF
:101F70007189E12C01E0218188EF95E00E94C4176E
:101F80000EC0ECE8F5E04685578560897189EE243E
:101F9000E39401E0218188EF95E00E94C4178CE072
:101FA000E8EFF5E0A3EAB5E001900D928A95E1F73C
:101FB0008091D30580939305882309F40EC10E9474
:101FC0003B2280919305813079F48091050682301F
:101FD00091F19FB7F8948091890588608093890575
:101FE0009FBF0E94572027C0ECE8F5E081E0808386
:101FF0001482138211821682118610868091050642
:102000008230B1F0BE016F5F7F4F80E00E94132AE3
:10201000882309F478C08CE0FE013196AFEAB5E080
:1020200001900D928A95E1F70E94C42B0E9404054D
:1020300087E00E94F1221092930580E0CEC081E0FB
:10204000CCC082E0CAC084E1C8C088E1C6C084E1D7
:10205000C4C084E1C2C084E1C0C088E1BEC084E1E4
:10206000BCC084E1BAC084E1B8C088E1B6C084E1F4
:10207000B4C084E1B2C087E1B0C085E1AEC087E101
:10208000ACC084E1AAC085E1A8C084E1A6C089E112
:10209000A4C084E0A2C08BE1A0C086E19EC08CE118
:1020A0009CC085E29AC08DE198C087E096C08AE125
:1020B00094C08CE192C08DE190C084E18EC084E137
:1020C0008CC087E08AC08AE188C087E086C087E04C
:1020D00084C08EE182C08FE180C086E17EC08AE14B
:1020E0007CC080E27AC081E278C082E276C083E27E
:1020F00074C081E272C081E270C08AE16EC081E288
:102100006CC084E26AC087E068C087E166C00C31B9
:1021100011F40C94C70650F4043011F40C94B70673
:102120000A3011F00C94D5070C94BF06053311F456
:102130000C94F3060C3511F40C94FB060E3111F0DF
:102140000C94D5070C94DD060C3111F40C94C906DF
:1021500048F4043011F40C94B9060A3011F40C94CC
:10216000C106D3CF053311F40C94F5060C3511F4E8
:102170000C94FD060E3149F60C94DF06E1E0EEA367
:102180001DA2F2E0FCA38091CE05813009F0EBC8DE
:10219000B6C825E0521609F4EBCA37E0531609F425
:1021A000F5CA83E05812F7CAD9CA95E0591609F45E
:1021B000DFCAA7E05A1609F4E9CAB3E05B12EBCA1A
:1021C000CCCA1091CC05183009F0F6CAEFCAEEED72
:1021D0006E22ECEF7E221AA222CDAB960FB6F894B7
:1021E000DEBF0FBECDBFDF91CF911F910F91FF904A
:1021F000EF90DF90CF90BF90AF909F908F907F90A7
:102200006F905F904F903F902F900895EBE6F0E035
:102210008081897E8083E8E6F0E080818E7F808304
:10222000089584B1897E84B985B1866185B980912C
:10223000200783FF0BC0EBE6F0E08081866180839E
:10224000E8E6F0E080818160808308950E940611B5
:102250000895EF92FF920F931F93CF93DF9313B1E3
:1022600016718091200786FD1BC086E1182718C0D3
:10227000C0E0D0E000E0EE24E394F12C8C2F0E942B
:10228000BA2B812341F0C7010C2E02C0880F991F81
:102290000A94E2F7082B2196C330D10579F703C0E1
:1022A0001111E6CF00E0802FDF91CF911F910F91A8
:1022B000FF90EF9008951F920F920FB60F92112486
:1022C0002F933F934F935F936F937F938F939F933E
:1022D000AF93BF93EF93FF9380910506813071F028
:1022E00080918B0581110AC00E9447189FB7F8940E
:1022F00080918B05836080938B059FBFFF91EF9149
:10230000BF91AF919F918F917F916F915F914F910D
:102310003F912F910F900FBE0F901F9018952F9205
:102320003F924F925F926F927F928F929F92AF9265
:10233000BF92CF92DF92EF92FF920F931F93CF93B2
:10234000DF93CDB7DEB76A970FB6F894DEBF0FBE46
:10235000CDBF909104069111C9C1888F23EE36E05C
:102360003F8B2E8B7901CE0101965C0100E010E0DD
:10237000412C512C3201988DC92ED12C802F0E94D6
:10238000A62BD5018D935D01D98AC88AC601002E7E
:1023900002C0959587950A94E2F780FF19C020E066
:1023A00030E040EC5FEBF70164A175A186A197A135
:1023B0000E940D3D862E972E282E392EA3019201C4
:1023C0000E94AB3A882324F0482C592C622C732CA1
:1023D0000F5F1F4FF4E0EF0EF11C0330110571F693
:1023E000288839888091260790912707A09128078F
:1023F000B09129078A8B9B8BAC8BBD8B94E0988B1B
:1024000001E068E076E0CE0104960E949738809162
:102410002107E82EF12CAE014C5F5F4F0F2EF4E048
:10242000CF2EF6E0DF2EF02DF601DE01119680E0D2
:1024300090E060E010E053014201B7FAB094B7F8C1
:10244000B094BA8FA98F9101082E02C035952795B7
:102450000A94E2F720FF31C06F5F14821582168262
:1024600017829701082E02C0359527950A94E2F746
:1024700020FF10C0002339F0DA018D929D92AD92B9
:10248000BC92139716C0DA014D925D926D927C92C8
:1024900013970FC0002339F0DA014D925D926D92CF
:1024A0007C92139706C0DA018D929D92AD92BC92F8
:1024B0001397A98DBA8D2C91122B0196298D3A8DE7
:1024C0002F5F3F4F3A8F298F4C5F5F4F3496833099
:1024D000910509F0B8CF462E512C612C712CC30107
:1024E000B2010E945D3B0E94AC3D9B01AC016A8938
:1024F0007B898C899D890E940D3D4B015C01109365
:1025000021060E94A71E20E0B501A401CE01049679
:102510000E94381B0E94332F0E94452C0023F1F0AB
:102520000E942911FE01319620E030E0682F70E012
:102530008191982F912359F0AB01022E02C055953D
:1025400047950A94E2F740FF02C0809518232F5F59
:102550003F4F2330310561F7109321060E94332F3E
:10256000809189058473C9F080918905807339F45D
:102570000111B7C00E942911388D832329F00E94D0
:1025800047180E945720B2C09FB7F89480918905E0
:102590008B7F809389059FBF04C0812F8C7109F0C8
:1025A000BDCF0E94C62E0E94E01AAAE2B7E08D912C
:1025B0009C910E943C19B1E00B27D1F020E030E063
:1025C00040EA50E4ECE2F7E060817181828193811E
:1025D0000E940D3D2B013C01A2E2B7E08D919D913F
:1025E0000D90BC91A02D8A8B9B8BAC8BBD8B11C0A9
:1025F000ECE2F7E04080518062807380A6E2B7E0B1
:102600008D919D910D90BC91A02D8A8B9B8BAC8B55
:10261000BD8BB889B150B88BB111F3CEE0902107D2
:10262000F12C80902C0790902D07A0902E07B09051
:102630002F072401350177FA709477F8709400E041
:1026400010E0C101002E02C0959587950A94E2F72B
:1026500080FF36C0C701002E02C0959587950A9469
:10266000E2F780FF15C0EE89FF8924A135A146A1BC
:1026700057A1C501B4010E94B639AE89BF892D9119
:102680003D914D915C910E940D3D0E94DA3C0CC041
:10269000EE89FF892081318142815381C301B201DA
:1026A0000E940D3D0E94DA3CD60114966C9314975B
:1026B00015967C93159716968C93169717969C9360
:1026C0000F5F1F4FB4E0CB0ED11CEE89FF8934960B
:1026D000FF8BEE8B0330110509F0B3CF0E94A71ECC
:1026E00005C08091890582FF4FCF49CF6A960FB60A
:1026F000F894DEBF0FBECDBFDF91CF911F910F9138
:10270000FF90EF90DF90CF90BF90AF909F908F9011
:102710007F906F905F904F903F902F9008959F9281
:10272000AF92BF92CF92DF92EF92FF920F931F93DF
:10273000CF93DF9390900706EC010F2EF7E0AF2EBA
:10274000F7E0BF2EF02D8C01045F1F4FC990D99088
:10275000E990F99020E030E0A901C701B6010E949C
:10276000CD3C181664F0F5012191319141915191C0
:102770005F01C701B6010E94AB3A882324F481E0CF
:102780008093070602C0992019F1809105068830D0
:1027900091F49FB7F89480918905886080938905AA
:1027A0009FBFC4E0D6E00E9457208881811114C0E9
:1027B00089818111F8CF0E9447189FB7F8948091C2
:1027C0008B05856080938B059FBF0E94572004C0B6
:1027D000C017D10709F0BACFDF91CF911F910F91A8
:1027E000FF90EF90DF90CF90BF90AF909F900895B3
:1027F0000E94B2390E94B23861E080E00E948239C2
:102800000E94992B0E94F22E0E941B36E4E0F6E013
:102810008EE1DF011D928A95E9F781E0808378944B
:102820008091200784FF03C081E080930506C4E007
:10283000D6E00E94EE280E94FD050E94CA2B0E944D
:1028400006050E9411110E9423200E94E01A0E9496
:10285000C62E0E94A71E0E940F061882109289059C
:1028600010928B051A821B820E948E21E2CFBF92AA
:10287000CF92DF92EF92FF920F931F93CF93DF934C
:102880008C016A017B01B22E8091200785FF03C075
:10289000C8010E948F13809105068230A1F0C4E028
:1028A000D6E00E945720888181110DC00E94301B04
:1028B000882319F00E948521F4CF2B2DB701A601A2
:1028C000C8010E94381BDF91CF911F910F91FF909B
:1028D000EF90DF90CF90BF9008952F923F924F924C
:1028E0005F926F927F928F929F92AF92BF92CF92A0
:1028F000DF92EF92FF920F931F93CF93DF93CDB7A9
:10290000DEB7E4970FB6F894DEBF0FBECDBF9E874B
:102910008D877CAB6BAB3A010D831E832F83388789
:10292000CF86D88AE98AFA8A0A2D912C880C991CBC
:10293000880C991C880D991D9C8B8B8BCA01880D66
:10294000991D98AB8FA7DC012D903D904D905C9028
:10295000EB89FC892081318142815381C201B1011F
:102960000E94B6396D8B7E8B8F8B988F2A96AFAC79
:102970002A97B12CAA0CBB1CAA0CBB1C8D859E856A
:102980008A0D9B1D9A8F898FD301AA0DBB1DBAABEF
:10299000A9ABCD90DD90ED90FC90FC0120813181C0
:1029A00042815381C701B6010E94B6396B8F7C8F7B
:1029B0008D8F9E8FD201C101B05889839A83AB83DA
:1029C000BC83D701C601B05889879A87AB87BC877B
:1029D000EBA9FCA9E80DF91D2D893E894F89588D79
:1029E00060817181828193810E94B5396B017C0184
:1029F000EBA9FCA9EA0DFB1D2B8D3C8D4D8D5E8D49
:102A000060817181828193810E94B5394B015C01A3
:102A1000A701960169817A818B819C810E940D3D7D
:102A20002B013C01A501940169857A858B859C85E4
:102A30000E940D3D9B01AC01C301B2010E94B63959
:102A40002B013C01A501940169817A818B819C81D4
:102A50000E940D3D4B015C01A701960169857A85B5
:102A60008B859C850E940D3D9B01AC01C501B40185
:102A70000E94B539A30192010E94353A4B015C01D5
:102A80002C968FAD2C978823A9F02DEB37E346E0E9
:102A900055EBC501B4010E94CD3C8823FCF02BED21
:102AA0003FE049EC50E4C501B4010E94B5394B0147
:102AB0005C0114C02DEB37E346E055E3C501B401DA
:102AC0000E94AB3A181654F02BED3FE049EC50E46D
:102AD000C501B4010E94B6394B015C01C0901C07CE
:102AE000D0901D07E0901E07F0901F072D813E81BA
:102AF0004F815885CA01B9010E94B6392B013C01AA
:102B0000A7019601C301B2010E94B539A701960140
:102B10000E940D3D0E94AC3D6B017C0120E030E045
:102B200040E05FE3C501B4010E940D3D2D813E816F
:102B30004F8158850E940D3D9F77A70196010E9405
:102B4000B53A0E949A3B0E942E3B6B017C013B01EF
:102B50006115710509F481C1002381F080E090E0E6
:102B60000E945D3B9B01AC016F85788989899A89B8
:102B70000E940D3D6F87788B898B9A8BB60180E020
:102B800090E00E945D3B6B017C019B01AC01C501A3
:102B9000B4010E94B53A6BA77CA78DA79EA72B9680
:102BA0008FAD2B9790E0880F991F880F991F4D8448
:102BB0005E84480E591EEBA9FCA9E80FF91FD2014B
:102BC0002D913D914D915C916081718182819381C4
:102BD0000E94B539A70196010E94B53A6F8F78A37C
:102BE00089A39AA32BA53CA54DA55EA5CA01B90151
:102BF0000E940D3D9B01AC0160E070E080E090E43C
:102C00000E94B5396B017C012BEA3AEA4AE25EE3A5
:102C10006BA57CA58DA59EA50E940D3D4B015C0179
:102C200020E030E040E850E4C701B6010E94B63928
:102C30009B01AC01C501B4010E940D3D6BA37CA3B7
:102C40008DA39EA320E030E040E05FE3C701B60122
:102C50000E940D3D6FA378A789A79AA7B2E06B16D3
:102C6000710408F4FAC010E022242394312CC984A2
:102C7000DA84EB84FC841C3008F044C0A701960180
:102C80006FA178A589A59AA50E940D3D4B015C0115
:102C900029813A814B815C816BA17CA18DA19EA190
:102CA0000E940D3DA50194010E94B639862E972EF3
:102CB000A82EB92E29813A814B815C816FA178A51C
:102CC00089A59AA50E940D3D69837A838B839C8395
:102CD000A70196016BA17CA18DA19EA10E940D3D33
:102CE0009B01AC0169817A818B819C810E94B539FD
:102CF00069837A838B839C831F5FC82CD92CEA2C31
:102D0000FB2C66C0B10180E090E00E945D3B2BA5EA
:102D10003CA54DA55EA50E940D3D6B017C010E9466
:102D2000B03A6D837E838F839887C701B6010E9476
:102D30009E3D69877A878B879C87EFA5F8A9C0801D
:102D4000D180E280F380F7FAF094F7F8F094A9A923
:102D5000BAA98D909D90AD90BC90A70196016D8110
:102D60007E818F8198850E940D3D69837A838B8354
:102D70009C83A501940169857A858B859C850E9439
:102D80000D3D9B01AC0169817A818B819C810E9400
:102D9000B63969837A838B839C83A7019601698501
:102DA0007A858B859C850E940D3D6B017C01A50178
:102DB00094016D817E818F8198850E940D3D9B01DC
:102DC000AC01C701B6010E94B5396B017C0110E06E
:102DD0002D893E894F89588D69817A818B819C81AB
:102DE0000E94B639EB89FC89608371838283938367
:102DF0002B8D3C8D4D8D5E8DC701B6010E94B6397D
:102E0000A98DBA8D6D937D938D939C9313972F8D80
:102E100038A149A15AA1F201608171818281938117
:102E20000E94B639D2016D937D938D939C93139735
:102E3000202F4F85588969897A898D859E850E94C2
:102E40003714E4E0F6E08081811110C0FFEF2F1A03
:102E50003F0A6214730409F00ECF202F4F85588962
:102E600069897A898BA99CA90E943714E4960FB6C8
:102E7000F894DEBF0FBECDBFDF91CF911F910F91B0
:102E8000FF90EF90DF90CF90BF90AF909F908F908A
:102E90007F906F905F904F903F902F9008958F920A
:102EA0009F92AF92BF92CF92DF92EF92FF92CF9319
:102EB000DF9320910506223009F448C04B015C01E4
:102EC00020E030E040EA51E40E940D3D0E949A3B30
:102ED0000E942E3B6B017C01EB010E943B2220E013
:102EE00030E04AE754E4C501B4010E940D3D4B01B6
:102EF0005C0182E38C9DB0018D9D700D112480E0FA
:102F000090E00E945D3B9B01AC01C501B4010E94B1
:102F1000B5390E949A3B0E942E3BCB010E943C197E
:102F2000CD2BA1F0C4E0D6E00E945720888181110A
:102F30000DC02FEF80E792E0215080409040E1F7F4
:102F400000C0000021E0C21AD10871F7DF91CF91D3
:102F5000FF90EF90DF90CF90BF90AF909F908F90B9
:102F600008950E94061184E00E948F1183E00E9460
:102F70008F110E94572080910406811104C00E9485
:102F80000F060E94111108958F929F92AF92BF92E7
:102F9000CF92DF92EF920F93CF93DF93309105069C
:102FA000323009F469C0C22F4A015B016C010E94F2
:102FB0003B2210922006802F0E9426200E9438205B
:102FC000882351F09FB7F89480918B05806180939E
:102FD0008B059FBF0E9457208091040681114CC031
:102FE0002C2FB501A401C6010E94371481E0809303
:102FF0008A059FB7F894809189058260809389053E
:103000009FBFC4E0D6E00E9457209881911134C040
:1030100099819111F8CF80918A058130A9F4EE2031
:1030200051F08CE0E8E0F6E0A4E1B6E001900D920A
:103030008A95E1F70CC09FB7F89480918B05806169
:1030400080938B059FBF03C081E080932006109280
:103050008A050E9457208091040681110DC00E94AC
:10306000C62E0E94E01A0E94A71E68E076E0C60104
:103070000E9497380E945425DF91CF910F91EF90D5
:10308000DF90CF90BF90AF909F908F9008958091E8
:10309000890584FD2AC09FB7F894809189058061D5
:1030A000809389059FBF0E94C42B0E9404058091D4
:1030B0000506982F9C7021F4909106069130A9F492
:1030C000843049F49FB7F89480918B058062809397
:1030D0008B059FBF08C09FB7F89480918B058860CF
:1030E00080938B059FBF0E94642C08954F925F923E
:1030F0006F927F928F929F92AF92BF92CF92DF9208
:10310000EF92FF920F931F93CF93DF93DC01FB01AC
:10311000C081D0E0FC01EC0FFD1F90819D3229F4AD
:10312000EF012296918101E00BC09B3229F021969C
:10313000CA0FDB1F00E004C0EF012296918100E07E
:1031400080E020E010E0412C512C320131E0FE0102
:1031500090539A3010F52F5F2930D8F48111115017
:1031600053014201880C991CAA1CBB1C880C991C99
:10317000AA1CBB1C840C951CA61CB71C880C991C93
:10318000AA1CBB1C24013501490E511C611C711C79
:1031900009C0811107C01F5F05C09E3F31F4811136
:1031A00004C0832F90812196D2CF222309F452C0EC
:1031B0006A017B015D01C301B2010E945D3B2B01ED
:1031C0003C0120E030E0A9010E94AB3A882351F194
:1031D0001F3F6CF42AE037ED43E25CE3C301B20128
:1031E0000E940D3D2B013C011E5F1F3F9CF31123EC
:1031F0005CF42DEC3CEC4CEC5DE3C301B2010E94AD
:103200000D3D2B013C010EC0111664F420E030E0AE
:1032100040E251E4C301B2010E940D3D2B013C018B
:103220001150A1F7002351F077FA709477F8709459
:10323000F601408251826282738205C0F6014082AB
:10324000518262827382CA19DB09C150F701C083BF
:1032500081E001C080E0DF91CF911F910F91FF903D
:10326000EF90DF90CF90BF90AF909F908F907F9026
:103270006F905F904F900895009741F0EFE9FFE065
:103280003197F1F700C000000197C1F708954F9200
:103290005F926F927F928F929F92AF92BF92CF92E6
:1032A000DF92EF92FF924B015C0169017A01A50167
:1032B0009401C501B4010E940D3D4B015C01A701C1
:1032C0009601C701B6010E940D3D9B01AC01C501ED
:1032D000B4010E94B6390E94AC3DFF90EF90DF90A0
:1032E000CF90BF90AF909F908F907F906F905F90A6
:1032F0004F9008952F923F924F925F926F927F92DC
:103300008F929F92AF92BF92CF92DF92EF92FF92F5
:103310000F931F93CF93DF93C0918201C11101C01E
:10332000C2E1C150D0918001DC1709F436C10C2FE5
:1033300010E029E2C29FC0011124FC01EC57FE4FAE
:103340006F01E588F6889788808C61A172A183A1BE
:1033500094A19B01AC010E94B639F60125A136A1CA
:1033600047A150A50E940D3DA62EB72EC82ED92EDE
:10337000262F372F482F592F6E2D7F2D892D982DD1
:103380000E94AB3A882324F0EA2CFB2C9C2C8D2C39
:1033900089E2809FF001819FF00D1124EC57FE4FD0
:1033A0008E2D9F2DA92DB82D818B928BA38BB48B45
:1033B000C11101C0C2E1C150DC1307C0809183017B
:1033C000D8137CC00E94142F79C029E2209FC0012D
:1033D000219F900D11249C012C573E4F6901D9E289
:1033E000EC2EF12CDE9D8001DF9D100D11240C5779
:1033F0001E4FC11101C0C2E1C150809183018C13E5
:1034000002C00E94142FDE9DF001DF9DF00D1124FB
:10341000EC57FE4F458856886788708CA30192014F
:1034200061897289838994890E94AB3A882309F45F
:1034300040C0DE9DC001DF9D900D1124FC01EC57C2
:10344000FE4F5F0161A172A183A194A19B01AC0118
:103450000E94B639F50125A136A147A150A50E94C9
:103460000D3DF60121893289438954890E94B6397C
:103470004B015C019B01AC01C301B2010E94CD3C38
:10348000181664F4DE9DF001DF9DF00D1124EC5759
:10349000FE4F818A928AA38AB48A0BC0DE9DF00116
:1034A000DF9DF00D1124EC57FE4F418A528A638A4A
:1034B000748A6801809180018C1392CF20908001E2
:1034C000F9E22F9EC00111249C012C573E4F790137
:1034D000C1E0C20DC23109F4C0E030908201D9E2EE
:1034E00058C0CC2ED12CDC9D8001DD9D100D112407
:1034F0000C571E4FF7014188528863887488F80181
:1035000081889288A388B488A5019401C301B2017F
:103510000E94AB3A882324F5F70161A172A183A12F
:1035200094A19B01AC010E94B639F70125A136A1F7
:1035300047A150A50E940D3DA30192010E94B639FA
:103540002B013C019B01AC01C501B4010E94CD3CA3
:10355000181634F4F801418A528A638A748A2C2E30
:10356000DC9DF001DD9DF00D1124EC57FE4F258907
:1035700036894789508D61897289838994890E942F
:10358000AB3A811101C02C2ECF5FC23109F4C0E0EB
:103590007801C311A6CF20928001DF91CF911F91B6
:1035A0000F91FF90EF90DF90CF90BF90AF909F90E2
:1035B0008F907F906F905F904F903F902F900895E5
:1035C0008CE1E4E6F1E0DF011D928A95E9F71092C3
:1035D00083011092820181E0809381011092800129
:1035E00008958091830190918201981769F091E08C
:1035F000980F923109F490E020918001821302C06B
:10360000909380019093830108958091830190911C
:103610008201981739F029E2829FC00111248C574A
:103620009E4F089580E090E00895E0918301EF5F60
:10363000E23109F4E0E0809182018E1769F089E2BD
:10364000E89FF0011124EC57FE4F6189728983894C
:1036500094890E94AC3D089560E070E0CB0108952C
:1036600081E02091830190918101291380E00895E8
:103670002F923F924F925F926F927F928F929F9282
:10368000AF92BF92CF92DF92EF92FF920F931F9370
:10369000CF93DF93CDB7DEB7E8970FB6F894DEBFD0
:1036A0000FBECDBF4BA75CA76DA77EA7022F2091B1
:1036B000820139E2239FA0011124FA01EC57FE4F49
:1036C000158616861786108A15A216A217A210A6AE
:1036D00010820F2EF9E9CF2EF6E7DF2EF6E9EF2E56
:1036E000FEE7FF2EF02DC1A2D2A2E3A2F4A29A8F90
:1036F000898F83EE96E09AAB89ABDE011196BC8F81
:10370000AB8FE4E6F1E0FCABEBABCA018B579E4F0D
:103710009E8F8D8F4E019DE0890E911C9AA289A2E9
:103720005F01A3EEB6E0BCA3ABA310E0E22FF0E094
:10373000F8ABEFA79A012C573E4F3AA729A7235F72
:103740003F4F38A72FA329A43AA435E2230E311CFA
:10375000A98DBA8D6D917D918D919D91BA8FA98F13
:10376000EBA1FCA14190519061907190FCA3EBA35F
:10377000A30192010E940D3D0E94DA3CAB8DBC8DED
:103780006D937D938D939D93BC8FAB8FF501C1900D
:10379000D190E190F1905F016C197D098E099F092C
:1037A0009B01AC013AF422273327A901261B370BD2
:1037B000480B590BAD8DBE8D2D933D934D935D936D
:1037C000BE8FAD8FEFA1F8A5C080D180E280F380DD
:1037D000C216D306E406F50610F469017A01AFA11A
:1037E000B8A5CD92DD92ED92FC9213970E945F3BBB
:1037F000A30192010E94B53A2B013C01E9A1FAA173
:103800006193719381939193FAA3E9A320E030E04F
:10381000A9010E94AB3A882344F4812F0E94B02B67
:10382000A9A5BAA59C91892B8C93A3019201C301F0
:10383000B2010E940D3DF10120813181428153810D
:103840000E94B639D1016D937D938D939C9313970C
:103850001F5F133009F07CCF0E94AC3D6B017C01EF
:1038600089E22FA538A9829FF001839FF00D1124D2
:10387000EC57FE4FC5A2D6A2E7A2F0A68585968595
:10388000A785B089892B8A2B8B2B09F447C220E0AE
:1038900030E0A9016BA57CA58DA59EA50E94AB3A41
:1038A00088230CF1002361F0A70196016BA57CA58C
:1038B0008DA59EA50E940D3D6BA77CA78DA79EA7F9
:1038C00020E030E040E85FE36BA57CA58DA59EA5D8
:1038D0000E94AB3A88237CF41BA61CA630E83DA7C7
:1038E0004FE34EA708C059E95BA786E78CA796E986
:1038F0009DA7AEE7AEA7A701960160E070E080E863
:103900009FE30E94B53A6DAB7EAB8FAB98AF2E01B3
:10391000B9E14B0E511C1BA21CA21DA21EA229E242
:10392000EFA5F8A92E9FC0012F9F900D11249C0197
:103930002B553E4F190169A87AA80BA91CA9D401DF
:10394000CD90DD90ED90FC9020E030E0A901C70122
:10395000B6010E94AB3A882309F48DC0A7019601F5
:103960006DA97EA98FA998AD0E940D3D6B017C01C8
:10397000F40160837183828393839B01AC0160E0D7
:1039800070E080E89FE30E94B53A9B01AC015F774D
:103990002D8F3E8F4F8F58A37AA269A2D3011C9618
:1039A0002D913D914D915C911F976D8D7E8D8F8DE9
:1039B00098A10E940D3D698F7B8FB82EA92E2BA553
:1039C0003CA54DA55EA50E94CD3C181634F0B98DDE
:1039D000BBA7EB8DECA7BDA6AEA6D101BC91B98F5C
:1039E000F101F181FB8FD1011296AC9012971396E1
:1039F000BC90E9A1FAA1208D318D428D538D6D8D42
:103A00007E8D8F8D98A10E940D3D6D8F79A38FA320
:103A100099A7262F372F482F592F698D7B8D8A2DF7
:103A20009B2D0E94AB3A882334F0FD8DF98F29A19C
:103A30002B8FAFA0B9A4898D9B8DAA2DBB2DF10131
:103A400080839183A283B383D8011C962D913D91ED
:103A50004D915C911F97C701B6010E940D3D9B01DE
:103A6000AC016BA17CA18DA19EA10E94B5396BA375
:103A70007CA38DA39EA3B4E08B0E911C0C5F1F4F03
:103A8000E4E06E0E711C8414950409F058CF9091F7
:103A9000820180918301981313C089E22FA538A970
:103AA000829FF001839FF00D1124EC57FE4F118A85
:103AB000128A138A148A118E128E138E148E90C05D
:103AC0002FEE3FEF4FE75FE36BA17CA18DA19EA19D
:103AD0000E94CD3C18167CF489E24FA558A9849F1A
:103AE000F001859FF00D1124EC57FE4F118E128EC0
:103AF000138E148E75C02FEE3FEF4FE75FEB6BA177
:103B00007CA18DA19EA10E94CD3C181644F08FEEA1
:103B10009FEFAFE7BFEB8BA39CA3ADA3BEA32BA1ED
:103B20003CA14DA15EA160E070E080E89FE30E94AF
:103B3000B53920E030E040E05FE30E940D3D0E9497
:103B4000AC3D6B017C0189E2AFA5B8A98A9FF00169
:103B50008B9FF00D1124EC57FE4F209118073091E8
:103B6000190740911A0750911B0761A172A183A107
:103B700094A10E940D3DA70196010E940D3D4B01AD
:103B80005C01A701960160E070E080E89FE30E947D
:103B9000B5399B01AC01C501B4010E94B53AE62ECE
:103BA000F72E082F192F20E030E0A9010E94AB3A30
:103BB000882324F4E12CF12C00E010E089E22FA509
:103BC00038A9829FF001839FF00D1124EC57FE4F1E
:103BD0004E2D5F2D602F712F418F528F638F748F09
:103BE0002BA53CA54DA55EA56BA57CA58DA59EA589
:103BF0000E940D3DF62E072F182FE92E89E24FA5C2
:103C000058A9849FF001859FF00D1124EC57FE4FB9
:103C10008F2D902FA12FBE2D858F968FA78FB0A3AC
:103C2000D18CC28CB38CA48C90907C0180907D014F
:103C300070907E0160907F01292D382D472D562DE3
:103C40006F2D702F812F9E2D0E94AB3A88232CF070
:103C5000B92DA82DF72DE62D04C0BF2DA02FF12FD3
:103C6000EE2D2D2D3C2D4B2D5A2D6B2F7A2F8F2F76
:103C70009E2F0E94CD3C1816ACF0292D382D472DD3
:103C8000562D6F2D702F812F9E2D0E94AB3A8823C9
:103C90002CF0D92CC82CB72CA62C04C0DF2CC02E9D
:103CA000B12EAE2C89E2AFA5B8A98A9FF0018B9FF7
:103CB000F00D1124EC57FE4F8D2D9C2DAB2DBA2D00
:103CC000858B968BA78BB08F8CE0FE013D96A0E78D
:103CD000B1E001900D928A95E1F78F2D902FA12FE1
:103CE000BE2D80937C0190937D01A0937E01B093C3
:103CF0007F018CE0FE013196A4E6B1E001900D92C7
:103D00008A95E1F780918101809382018F5F8231F2
:103D100009F480E0809381010E947A19E8960FB639
:103D2000F894DEBF0FBECDBFDF91CF911F910F91F1
:103D3000FF90EF90DF90CF90BF90AF909F908F90CB
:103D40007F906F905F904F903F902F900895A8E0E4
:103D5000B6E0E4E6F1E080E791E04D915D916D9190
:103D60007D914193519361937193E817F907A9F7F6
:103D700008958091820190918301891710F0891B29
:103D800008958E5E891B08950E94142F80918301EF
:103D9000809380010E947A190895CF93DF93EC01FC
:103DA0008881882331F021960E941D2889918111F4
:103DB000FBCFDF91CF910895CF93DF93EC01219654
:103DC000FC018491882339F00E941D28FE01849112
:103DD00021968111F9CFDF91CF910895CF92DF9293
:103DE000EF92FF921F93CF93DF93CDB7DEB7562F9D
:103DF000142FCDB6DEB62DB73EB7241B31090FB652
:103E0000F8943EBF0FBE2DBF6DB77EB76F5F7F4F7B
:103E10007B014423D1F0FB019FEF940F292F30E069
:103E20002F5F3F4F260F371F652F0E94163E91933D
:103E30002E173F07C9F7F701E10FF11D3197808178
:103E4000805D0E941D281150B1F70FB6F894DEBEB8
:103E50000FBECDBEDF91CF911F91FF90EF90DF900D
:103E6000CF90089548E062E00E94EE1E08958A30E7
:103E700020F0843620F043E003C041E001C042E07E
:103E80006AE00E94EE1E08958F929F92AF92BF92B9
:103E9000CF92DF92EF92FF920F931F93CF93DF9316
:103EA000CDB7DEB72A970FB6F894DEBF0FBECDBFF1
:103EB0006B017C01042F20E030E0A9010E94AB3AA5
:103EC00088233CF48DE20E941D28F7FAF094F7F85D
:103ED000F094023088F0102F20E030E048EC52E4FB
:103EE000C701B6010E940D3D6B017C0112501230DA
:103EF00098F7802F817001C0802F882351F020E037
:103F000030E040E251E4C701B6010E940D3D6B0173
:103F10007C0120E030E040E05FE3C701B6010E9491
:103F2000B6390E94273B2EE2FE01E00FF11D2183EE
:103F3000611571058105910541F110E00F2EFAE040
:103F40008F2E912CA12CB12CF02D011303C021E058
:103F5000210F01C0212F11E0120FEE24E394F12C68
:103F6000EC0EFD1EE20EF11CA50194010E94223E02
:103F7000605DF7016083622F732F842F952F611589
:103F800071058105910509F701C010E0101760F473
:103F900080E3E1E0F0E0EC0FFD1FE10FF11D808315
:103FA0001F5F0113F6CF02C0011308C012E0100F0B
:103FB0000F5FFE01E00FF11D80E38183112341F0CB
:103FC000FE01E10FF11D80810E941D281150C1F7F3
:103FD0002A960FB6F894DEBF0FBECDBFDF91CF910A
:103FE0001F910F91FF90EF90DF90CF90BF90AF9017
:103FF0009F908F9008952091200720FF0AC02BE802
:1040000032E441E25DE30E940D3D44E00E94441F22
:10401000089543E00E94441F08952091200720FF47
:104020000AC02BE832E441E25DE30E940D3D41E02D
:104030000E94441F089540E00E94441F089543E0F9
:104040000E94441F08953D98459A089510922206B3
:104050009091200799231CF090E2909322068823E8
:1040600031F09091220680E28927809322060895FC
:1040700086B18072909122068927089580918A05E1
:104080008130A1F40E943820882381F010928A05A3
:104090008CE0E8E0F6E0A4E1B6E001900D928A95AC
:1040A000E1F7809189058064809389050895AF9236
:1040B000BF92CF92DF92EF92FF920F931F93CF9315
:1040C000DF93C4E0D6E001E06894AA24A3F80F2EA1
:1040D000FCE8EF2EF5E0FF2EF02D6894CC24C5F817
:1040E0006894DD24D4F86894BB24B6F810918B054D
:1040F0001123B1F1098311FF04C0802F0E94BC225B
:1041000017C012FF04C082E00E94BC2211C013FF3E
:1041100004C083E00E94BC220BC014FF04C084E0F2
:104120000E94BC2205C015FF03C085E00E94BC228E
:1041300010FF0FC0802F0E94F1229FB7F89480914A
:1041400089058F7E809389059FBF8091890584FFB3
:10415000FCCF8FB7F89490918B0510928B058FBF91
:1041600010918905112309F4A5C014FF04C081E052
:1041700080930406BFC010FF0AC00E9417279FB794
:10418000F894809189058E7F809389059FBF812F48
:10419000887609F4A9C08981882359F0982F9C77E3
:1041A00009F09FC023C00E94142F0A8389818111C6
:1041B00005C082E08A8316FD06C099C016FF06C0BE
:1041C000883009F4B9828A8188608A8313FF03C02A
:1041D000898185FFD98215FF09C086E00E94F122FE
:1041E0008A8181FD146084608A83C9829FB7F894B4
:1041F000809189058779809389059FBF11FF3DC014
:10420000812F887691F58981882329F0807569F15D
:104210008A8181FF2AC08A8182FF18C0F7018185C7
:10422000882351F042855385648575850E94CF2B84
:1042300080EA9FE00E943C19F7018085882331F0D5
:104240000E940A0588EE93E00E943C190E94051B1B
:10425000892B49F08A8183FD06C0A9820E94332FF1
:104260000E94452C01C019821A829FB7F894809150
:1042700089058D7F809389059FBF12FF1BC08981AF
:10428000807371F08B8181110BC08A8182FF04C021
:104290000E94C42B0E9404058A8182608A8302C026
:1042A0001A8219829FB7F894809189058B7F809339
:1042B00089059FBF89818C7711F00E94332F8981F6
:1042C000803241F48A8181FF05C00E9467368111E6
:1042D00001C0D9828A81811109CF0CC016FF76CF27
:1042E00072CF8830D9F75FCF11FD8DCFC6CF13FDC8
:1042F00071CF71CFDF91CF911F910F91FF90EF9010
:10430000DF90CF90BF90AF9008959FB7F8948091C1
:1043100089058260809389059FBF0895BF92CF92DF
:10432000DF92EF92FF920F931F93CF93DF930E9440
:104330002F2380910506813081F482E00E94F122D2
:10434000F12CE12CC4E0D6E0D12C06E614E0CC241C
:10435000C3946894BB24B1F878C00E946736882360
:1043600041F0809189058062809389050E945720E1
:1043700002C01092050686E694E00E946936E0CFFE
:104380008A3011F08D3079F5EF2DF0E0EA59FB4FCE
:1043900010820E9457208881811151C0F8018081CC
:1043A000811106C08D2D0E945022FD2CED2C4DC098
:1043B000843241F4C8010E948B360E945022FD2CA9
:1043C000ED2C43C08981813031F489E00E94502274
:1043D000FD2CED2C3AC0C8010E9416060E94502206
:1043E000FD2CED2C32C0EE2039F0893271F5F1E070
:1043F000EF122BC0ED2C29C0813238F18F3229F118
:10440000883201F18B3301F19EE49F1528F48BE093
:104410000E945022FD2C19C09FE9980F9A3140F458
:10442000EF2DF0E0EA59FB4F80528083F3940DC0EA
:10443000EF2DF0E0EA59FB4F8083F39406C0FD2C8A
:10444000ED2C03C0EC2C01C0EB2C0E9471288F3F97
:1044500009F096CF0E9485210E94572088818823E9
:10446000A1F3DF91CF911F910F91FF90EF90DF901B
:10447000CF90BF900895CF93DF930E948521C4E031
:10448000D6E00E9457208881811107C00E94051B39
:10449000892BB9F789818830A1F3DF91CF910895F5
:1044A000CF93C82F811105C084EC99E00E94DC1ED7
:1044B00061C08CEB99E00E94DC1E8C2F90E0FC0127
:1044C0003197E631F10508F04AC0E952FF4F0C94EC
:1044D000443E84EA99E00E94DC1E48C082E999E0EB
:1044E0000E94DC1E43C080E899E00E94DC1E3EC0B2
:1044F00086E799E00E94DC1E39C085E699E00E94BB
:10450000DC1E34C086E599E00E94DC1E2FC085E3E6
:1045100099E00E94DC1E2AC08CE299E00E94DC1E19
:1045200025C081E299E00E94DC1E20C08EE099E067
:104530000E94DC1E1BC080E099E00E94DC1E16C0B9
:104540008AEE98E00E94DC1E11C086ED98E00E9481
:10455000DC1E0CC082EC98E00E94DC1E07C080EBE1
:1045600098E00E94DC1E8C2F0E94371F8DEA98E095
:104570000E94DC1ECF910895CF93C82F85EA98E062
:104580000E94DC1EC330A9F02CF4C13041F0C230CF
:1045900059F01DC0C43091F0C530A9F018C08AE9A7
:1045A00098E00E94DC1E13C08FE898E00E94DC1E99
:1045B0000EC08CE798E00E94DC1E09C081E798E0FD
:1045C0000E94DC1E04C085E698E00E94DC1E82E6A4
:1045D00098E00E94DC1E84EF91E00E943C19CF918C
:1045E0000895CF93C82F80E698E00E94DC1E8C2FA0
:1045F00090E0FC013197E830F10558F5E351FF4FA9
:104600000C94443E8EE498E00E94DC1E22C08AE3B3
:1046100098E00E94DC1E1DC088E298E00E94DC1E2B
:1046200018C080E298E00E94DC1E13C087E198E089
:104630000E94DC1E0EC08CE098E00E94DC1E09C0C7
:1046400084E098E00E94DC1E04C081EF97E00E94A5
:10465000DC1E8DEE97E00E94DC1ECF91089580ED68
:1046600097E00E94DC1E08958CE896E00E94DC1E14
:1046700008951F93CF93DF9388E896E00E94DC1E95
:10468000C3EED6E088A90E94371F8FE696E00E940D
:10469000DC1E8BA90E94371F81E596E00E94DC1E7C
:1046A00089A90E94371F88E396E00E94DC1E89A931
:1046B0000E94321F81E396E00E94DC1E8AA90E94BC
:1046C000371F89E196E00E94DC1E8AA90E94321FF2
:1046D00082E196E00E94DC1E8DAD82FB882780F986
:1046E0000E94371F81EF95E00E94DC1E8DAD86FB96
:1046F000882780F90E94371F81ED95E00E94DC1E1B
:104700008DAD881F8827881F0E94371F81EB95E099
:104710000E94DC1E8CA90E94371F8BE995E00E9445
:10472000DC1E8CA90E94321F83E995E00E94DC1EEA
:104730006DA97EA98FA998AD0E941F2083E795E0FF
:104740000E94DC1E69AD7AAD8BAD9CAD0E941F202E
:1047500088E595E00E94DC1E8DAD81700E94371FB8
:104760008BE395E00E94DC1E8DAD85FB882780F9E8
:104770000E94371F80E295E00E94DC1E8DAD83FB16
:10478000882780F90E94371F85E095E00E94DC1E93
:104790008DAD829581700E94371F89EE94E00E9452
:1047A000DC1E8EAD0E94371F8FEC94E00E94DC1E51
:1047B0008EAD0E94321F87EC94E00E94DC1E609157
:1047C00022077091230780912407909125070E946A
:1047D0001F208AEA94E00E94DC1E609126077091F7
:1047E000270780912807909129070E941F208DE8B4
:1047F00094E00E94DC1E80912A070E94371F8EE6FB
:1048000094E00E94DC1E60912C0770912D0780912E
:104810002E0790912F070E941F2085E594E00E94AB
:10482000DC1E14E6D0E0F2C083E594E00E94DC1EBA
:104830008C2F810F0E94371F81E594E00E94DC1EBF
:10484000D13011F130F0D230D1F1D33009F070C055
:1048500054C0EC2FF0E0EE0FFF1FEE0FFF1FED51E5
:10486000F94F60817181828193810E941F208EE4C3
:1048700094E00E94DC1EC13009F46AC008F462C0F2
:10488000C23009F46BC07FC0EC2FF0E0EE0FFF1FC9
:10489000EE0FFF1FE151F94F608171818281938199
:1048A0000E941F208EE494E00E94DC1EC13009F4B7
:1048B0004FC008F447C0C23009F450C072C0EC2F9A
:1048C000F0E0EE0FFF1FEE0FFF1FE550F94F20E065
:1048D00030E041E655E460817181828193810E94DC
:1048E000B53A0E941F208EE494E00E94DC1EC13085
:1048F00079F140F1C23091F162C0EC2FF0E0EE0F9F
:10490000FF1FEE0FFF1FE95FF84F80819181A281A9
:10491000B381BC01CD0190580E941F208EE494E029
:104920000E94DC1EC130A1F068F0C230B9F055C061
:104930008EE494E00E94DC1EC13051F018F0C230C9
:1049400069F019C08CE494E00E94DC1EC0E066C0EF
:104950008AE494E00E94DC1EC1E060C088E494E038
:104960000E94DC1EC2E0D130D9F068F0D23031F1C3
:10497000D33091F190C0D130A1F028F0D230F9F0CD
:10498000D330B9F52AC08EE394E00E94DC1E87E0A4
:1049900094E00E94DC1ECF5FC33008F455C031C0E4
:1049A000C2E08CE294E00E94DC1E87E094E00E946A
:1049B000DC1ECF5FC33008F454C023C0C2E08BE1DB
:1049C00094E00E94DC1E87E094E00E94DC1ECF5F32
:1049D000C33008F453C015C0C2E08BE094E00E94DD
:1049E000DC1E87E094E00E94DC1ECF5FC330F8F04D
:1049F00008C087E094E00E94DC1ECF5FC33008F45B
:104A000013CF165FDF5F1C3809F44AC0C0E00CCF3B
:104A100087E094E00E94DC1ECF5F06CFD13009F220
:104A200008F4B1CFD23059F2D33091F7D6CF83E525
:104A300094E00E94DC1E812F8C0F0E94371F81E5BD
:104A400094E00E94DC1E59CF83E594E00E94DC1EB6
:104A5000812F8C0F0E94371F81E594E00E94DC1E9D
:104A6000F8CE83E594E00E94DC1E812F8C0F0E941B
:104A7000371F81E594E00E94DC1E06CF83E594E0B9
:104A80000E94DC1E812F8C0F0E94371F81E594E06D
:104A90000E94DC1E14CF87E094E00E94DC1EB1CFA0
:104AA000DF91CF911F910895CF9381E094E00E9410
:104AB000DC1EC0E06C2F84E196E00E947B380E94EF
:104AC000FB1FC23020F48FEF93E00E94DC1ECF5F0B
:104AD000C33081F78DEF93E00E94DC1E80912006A9
:104AE0000E94371F89EF93E00E94DC1ECF9108954A
:104AF000EF92FF920F931F93CF93DF93CDB7DEB763
:104B00002C970FB6F894DEBF0FBECDBF00E0BE01FC
:104B10006F5F7F4F802F0E94132A811104C087E0AE
:104B20000E9450226EC086EF93E00E94DC1E063089
:104B300019F0073031F00AC083EF93E00E94DC1EC9
:104B400009C080EF93E00E94DC1E04C086E3800F62
:104B50000E94371F8EEE93E00E94DC1ECE0101966C
:104B60007C0110E0F70161917191819191917F0138
:104B70000E94FB1F123028F48CEE93E00E94DC1E92
:104B800004C088EE93E00E94DC1E1F5F133051F7D3
:104B90000F5F083009F0BBCF82EE93E00E94DC1E6D
:104BA0000F2EFBEBEF2EF5E0FF2EF02D10E0F701BE
:104BB00061917191819191917F010E94FB1F12304F
:104BC00028F480EE93E00E94DC1E04C08CED93E09C
:104BD0000E94DC1E1F5F133051F786ED93E00E94A8
:104BE000DC1E6091C7057091C8058091C905909140
:104BF000CA050E94FB1F82ED93E00E94DC1E0E940A
:104C000054252C960FB6F894DEBF0FBECDBFDF91B2
:104C1000CF911F910F91FF90EF900895CF93DF9365
:104C200080ED93E00E94DC1E80918C058230A9F01B
:104C300028F4882341F0813059F01EC0833091F070
:104C40008830A9F019C08DEC93E00E94DC1E1DC0D5
:104C50008AEC93E00E94DC1E18C087EC93E00E946F
:104C6000DC1E13C084EC93E00E94DC1E0EC080ECBE
:104C700093E00E94DC1E09C08BEB93E00E94DC1ED7
:104C800080918C0582500E94371F88EB93E00E9430
:104C9000DC1ECCE8D5E08E818A5C0E94371F8C81B7
:104CA000813049F018F0823059F00EC083EB93E068
:104CB0000E94DC1E09C08EEA93E00E94DC1E04C044
:104CC00089EA93E00E94DC1E80918E05811105C067
:104CD00084EA93E00E94DC1E04C08FE993E00E9406
:104CE000DC1E80918F05811105C08AE993E00E9446
:104CF000DC1E04C085E993E00E94DC1E80918D05D6
:104D0000813029F480E993E00E94DC1E04C08BE826
:104D100093E00E94DC1E80919305813049F018F0E9
:104D2000823059F00EC087E893E00E94DC1E09C073
:104D300083E893E00E94DC1E04C08FE793E00E94AA
:104D4000DC1E80919505813021F068F0823031F0D1
:104D50000EC08BE793E00E94DC1E09C087E793E05A
:104D60000E94DC1E04C083E793E00E94DC1E809159
:104D70009405882319F0823031F009C08FE693E062
:104D80000E94DC1E04C08BE693E00E94DC1E88E6D5
:104D900093E00E94DC1ECCE8D5E08A890E94371F90
:104DA00085E693E00E94DC1E6E857F85888999895F
:104DB0000E940D2082E693E00E94DC1E6A857B85BE
:104DC0008C859D850E940D208EE593E00E94DC1E5F
:104DD000DF91CF9108951F93CF93DF93182FEB01AD
:104DE0008BE593E00E94DC1E812F0E94371F89E52E
:104DF00093E00E94DC1ECE010E94CD1E86E593E06A
:104E00000E94DC1EDF91CF911F910895CF93DF9315
:104E1000EC0186E493E00E94DC1ECE010E94CD1ED0
:104E200082E493E00E94DC1EDF91CF910895AF925F
:104E3000BF92CF92DF92FF920F931F93CF93DF9396
:104E4000CDB7DEB768970FB6F894DEBF0FBECDBF03
:104E50008CE0E8E0F6E0DE01119601900D928A9573
:104E6000E1F7E09105068E2F90E08134910538F549
:104E7000FC01EB50FF4F0C94443E8CE393E00E9406
:104E8000DC1E1DC087E393E00E94DC1E18C081E396
:104E900093E00E94DC1E13C08BE293E00E94DC1EB4
:104EA0000EC084E293E00E94DC1E09C08DE193E015
:104EB0000E94DC1E04C087E193E00E94DC1E80910A
:104EC0001707837039F0BE016F5F7F4FCE010D96DB
:104ED0000E9497388091170780FF1AC080E193E005
:104EE0000E94DC1E6E012DE0C20ED11C10E0F60106
:104EF00061917191819191916F010E94FB1F12301C
:104F000020F48EE093E00E94DC1E1F5F133079F7DF
:104F10008091170781FF4CC087E093E00E94DC1E60
:104F20008E01035F1F4F0F2EFFEACF2EF5E0DF2E1D
:104F3000F02DF12CF60161917191819191916F01A8
:104F400020853185428553850E94B6399B01AC018D
:104F5000F80160817181828193810E94B539F801E5
:104F60006083718382839383F2E0FF1212C02091E9
:104F7000C7053091C8054091C9055091CA050E94E6
:104F8000B539F80160837183828393830E94FB1F8C
:104F90000FC00E94FB1FF1E0FF1520F085E093E0B9
:104FA0000E94DC1EF3940C5F1F4F23E0F212C2CF6D
:104FB0008091170782FF08C08FEF92E00E94DC1EED
:104FC0000E94B91E0E94371F8091170783FF08C0F7
:104FD0008AEF92E00E94DC1E0E9412280E94371F76
:104FE0008091170784FF0AC084EF92E00E94DC1EC4
:104FF0000E94291143E062E00E94EE1E80EF92E0E1
:105000000E94DC1E68960FB6F894DEBF0FBECDBFBF
:10501000DF91CF911F910F91FF90DF90CF90BF90C4
:10502000AF9008959091B8048091B904891710F059
:10503000891B08958058891B0895E091B70421E0E9
:105040002E0F203431F420E004C09091890594FDA6
:105050000EC09091B6049217C1F3F0E0ED5DF94FE8
:1050600080832093B70462E080E00E948239089533
:105070001F920F920FB60F9211242F933F934F93CD
:105080005F936F937F938F939F93AF93BF93EF93B0
:10509000FF938091B604E82FF0E0ED5DF94F908129
:1050A0009093C6008F5F803409F480E08093B6044B
:1050B0009091B704891304C062E080E00E949A399D
:1050C000FF91EF91BF91AF919F918F917F916F91E0
:1050D0005F914F913F912F910F900FBE0F901F90B6
:1050E00018959091B8048091B904981761F0E92F50
:1050F000F0E0ED59F94F80819F5F903809F490E01E
:105100009093B80408958FEF08951F920F920FB6F1
:105110000F9211242F933F934F935F936F937F933D
:105120008F939F93AF93BF93EF93FF938091C600AC
:105130008F3359F028F4883161F18132C1F02CC0ED
:105140008034F1F08E3751F027C09FB7F8948091EA
:1051500089058160809389059FBF2FC09FB7F89410
:10516000809189058260809389059FBF26C09FB783
:10517000F894809189058860809389059FBF1DC040
:105180009FB7F894809189058062809389059FBFBD
:1051900014C00E94471811C0E091B90491E09E0F1D
:1051A000903809F490E02091B804921731F0F0E0C3
:1051B000ED59F94F80839093B904FF91EF91BF911E
:1051C000AF919F918F917F916F915F914F913F919F
:1051D0002F910F900FBE0F901F9018958091B904DA
:1051E0008093B804089521E5829FC001112440E511
:1051F00050E09D5F0E944505089540E550E0BC01E8
:105200008EEA93E00E94450508952DE0829FC0013B
:1052100011244CE050E09E5F0E944505089569E02E
:1052200080E090E00E9426054DE450E063EE76E0D9
:1052300081E090E00E94450508950F931F93CF935E
:10524000DF93CDB7DEB72C970FB6F894DEBF0FBE55
:10525000CDBF082F80FF84C0E3EEF6E08AE080AB8C
:1052600089E183AB11AA12AA83E084AB8AE097EDAF
:10527000A3E2BCE385AB96ABA7ABB0AF8FE692E100
:10528000A3E0BBE381AF92AFA3AFB4AF16AE80E0B3
:1052900090E0A8ECB1E48093220790932307A093B9
:1052A0002407B093250780E090E0AAEFB3E4809351
:1052B000260790932707A0932807B09329072AEF82
:1052C00030E030932B0720932A0740E050E060E85D
:1052D0007FE340932C0750932D0760932E07709324
:1052E0002F0715AE40E050E06AE773E44083518336
:1052F00062837383448355836683778340875187B2
:105300006287738784879587A687B787808B918B01
:10531000A28BB38B848B958BA68BB78B80E090EAA6
:10532000ACE0B7E4808F918FA28FB38F848F958F7D
:10533000A68FB78F80A391A3A2A3B3A380E090E030
:10534000A8E4B3EC84A395A3A6A3B7A380A791A7D1
:10535000A2A7B3A784A795A7A6A7B7A70E940F29BE
:1053600001FF11C0FE0131968CE0DF011D928A958C
:10537000E9F710E0BE016F5F7F4F812F0E94052982
:105380001F5F1830B9F702FF0AC060E080E093E0C9
:105390000E94260560E081E593E00E94260503FF58
:1053A00005C060E08EEA93E00E9426052C960FB6B9
:1053B000F894DEBF0FBECDBFDF91CF911F910F914B
:1053C00008951F93CF93DF93182FEB0181E5189F6A
:1053D000B00111247D5F40E550E0CE010E948A05B6
:1053E000892B39F41882BE01812F0E94F32880E0B6
:1053F00001C081E0DF91CF911F910895CF93DF939A
:10540000EC0140E550E06EEA73E00E948A05892BCA
:1054100031F41882CE010E94FD2880E001C081E0B5
:10542000DF91CF9108951F93CF93DF93182FEB0156
:105430008DE0189FB00111247E5F4CE050E0CE015A
:105440000E948A05892B59F48CE0FE0111928A95FD
:10545000E9F7BE01812F0E94052980E001C081E0AB
:10546000DF91CF911F91089580E090E00E941E058A
:10547000893069F44DE450E061E070E083EE96E03D
:105480000E948A0521E0892B19F420E001C020E068
:10549000822F0895CF92DF92EF92FF92CF93DF9306
:1054A000C82F6A017B0120E030E0A901C701B601E5
:1054B0000E94AB3A88230CF4DDC0C436A0F0ECE9BE
:1054C000EC0FE33020F0EA3008F0E2C0D5C0F0E0A5
:1054D000EE0FFF1FEE0FFF1FED51F94FC082D1827B
:1054E000E282F382C3C0C701B6010E94F03D0E9470
:1054F0002E3B8C2F90E08C31910508F0BFC0FC0151
:10550000EA5CFE4F0C94443E633008F4B9C06093EB
:105510001307ACC060931607A9C0609314070E94DC
:10552000862EA4C0609315070E94862E9FC0662316
:1055300031F0E3EEF6E085AD846085AF97C0E3EE31
:10554000F6E085AD8B7F85AF91C0662331F0E3EE49
:10555000F6E085AD806485AF89C0E3EEF6E085AD09
:105560008F7B85AF83C0662331F0E3EEF6E085AD37
:10557000806885AF7BC0E3EEF6E085AD8F7785AFC1
:1055800075C06093170772C0C0921807D0921907B0
:10559000E0921A07F0921B0769C0C0921C07D092D4
:1055A0001D07E0921E07F0921F0760C0662331F0CE
:1055B000E3EEF6E085AD816085AF58C0E3EEF6E03E
:1055C00085AD8E7F85AF52C0662341F08091200764
:1055D00084FF58C080628093200748C0E3EEF6E065
:1055E00085AD8F7D85AF42C0662331F0E3EEF6E0F6
:1055F00085AD886085AF05C0E3EEF6E085AD877FB9
:1056000085AF0E94111132C0662331F0E3EEF6E05F
:1056100085AD806185AF2AC0E3EEF6E085AD8F7C75
:1056200085AF24C06093210721C0C0922207D09289
:105630002307E0922407F092250718C0C09226079E
:10564000D0922707E0922807F09229070FC0862FF3
:1056500090E090932B0780932A0708C0C0922C07F4
:10566000D0922D07E0922E07F0922F070E940F296B
:1056700080E058C084E056C083E054C083E052C04C
:1056800086E050C08AE04EC083E04CC083E04AC050
:10569000E2E9EC0FE33070F0EA30B0F388E88C0F09
:1056A0008330A0F08A3090F38EE78C0F833048F17E
:1056B00083E038C0F0E0EE0FFF1FEE0FFF1FE15157
:1056C000F94FC082D182E282F382D0CFC82FD0E0DE
:1056D000CC0FDD1FCC0FDD1FC550D94F20E030E0CF
:1056E00040E752E4C701B6010E940D3D20E030E0E2
:1056F00040E752E40E940D3D688379838A839B834F
:10570000B5CFE82FF0E0EE0FFF1FEE0FFF1FE95FB0
:10571000F84FF7FAF094F7F8F094C082D182E28261
:10572000F382A4CFDF91CF91FF90EF90DF90CF90E5
:1057300008950E94342A811108C087E00E945022F7
:105740008FEF0E941D290E9439230895882321F09C
:10575000813021F080E1089584E0089588E0089583
:10576000882321F0813021F080E8089580E20895B7
:1057700080E40895882321F0813021F080E10895AC
:1057800082E0089584E00895E0EBF0E080818F7777
:1057900080830895239A259A0E94C42B0895CF925E
:1057A000DF92EF92FF926A017B01811103C00E9498
:1057B000C42B4DC0813011F42D9801C02D9A83E87F
:1057C0008093B000E1EBF0E08081887F826080838D
:1057D00020E030E0A901C701B6010E94AB3A1816DB
:1057E0001CF00E94C42B33C020E030E0A901C701A7
:1057F000B6010E94AB3A88239CF020E030E04AE7F3
:1058000054E4C701B6010E94CD3C181664F40F2E73
:10581000C12CD12CFAE7EF2EF4E4FF2EF02D03C0BB
:10582000C12CD12C76012CE53FE842E85EE3C701AC
:10583000B6010E940D3D20E030E040E05FE30E94B1
:10584000B6390E949A3B0E942E3B6093B300FF90B2
:10585000EF90DF90CF900895CF92DF92EF92FF927A
:10586000CF9390910506923051F06A017B01C82FC9
:105870000E943B22B701A6018C2F0E94CF2BCF9113
:10588000FF90EF90DF90CF9008958091200782FFE6
:1058900002C0289A01C02898809105068C7099F062
:1058A000EDEEF4E08091E80487878091E904868733
:1058B00080911307880F845081958587EFE6F0E08B
:1058C0008081826080830895EFE6F0E080818D7FA3
:1058D0008083E1E8F0E08081887F8160808310929E
:1058E000E704809116078F3F21F490918B0599234F
:1058F00079F090910506943059F090E00E943C199F
:105900008091200782FD02C0289A08952898089562
:105910008091200782FFFACFF7CF1F920F920FB628
:105920000F9211240F931F932F933F934F935F93E5
:105930006F937F938F939F93AF93BF93CF93DF9397
:10594000EF93FF938091E7048111B5C18BB1EDEE28
:10595000F4E09785907E8F71892B8BB98BB1837E14
:105960009685892B8BB9858586BD82E085BD81E0D2
:105970008093E704789481A192A1892B09F092C0C9
:105980008091EC049091EB04981709F480C0809109
:10599000EC0490E0EF01FC01EE0FFF1FDF01A80F08
:1059A000B91FAA0FBB1FA05FBA4FBAA3A9A3FD01DD
:1059B0008381948190938900809388008D919C913C
:1059C00011979D8F8C8F1296EC9112978E8D8E175A
:1059D000E9F0EE8F01E1E09FF0011124EC5CFA4F59
:1059E000F8A3EF8F4585568567857089769567950D
:1059F00057954795488759876A877B874C835D838E
:105A00006E837F83488359836A837B83EDEEF4E062
:105A1000C78DD0A198818091E80489278787498123
:105A20005A816B817C8115960C90159704C07695F0
:105A30006795579547950A94D2F7408B518B628BA7
:105A4000738B4D815E816F81788515960C901597CB
:105A500004C076956795579547950A94D2F7448B7D
:105A6000558B668B778B49855A856B857C858A013A
:105A70009B0115960C9004C03695279517950795B0
:105A80000A94D2F7008F118F228F338F0BC00E94A0
:105A9000642C9FB7F8948091890584608093890570
:105AA0009FBF09C10E943E20EDEEF4E016864081C2
:105AB00051816281738180899189A289B389840F20
:105AC000951FA61FB71F80839183A283B383078C82
:105AD000F0A1E02D458556856785708948175907DF
